:020000040800F2
:100000001046002061020008EB1B0008E116000802
:10001000E91B000891030008752200080000000099
:10002000000000000000000000000000A101000826
:100030009303000800000000FD010008ED1B00080C
:100040007B0200087B0200087B0200087B0200089C
:100050007B0200087B0200087B0200087B0200088C
:100060007B0200087B0200087B0200087B0200087C
:100070007B0200087B0200087B0200087B0200086C
:100080007B0200087B0200087B0200087B0200085C
:100090007B0200087B0200087B0200087B0200084C
:1000A0007B0200087B0200087B0200087B0200083C
:1000B000B51C0008C11C0008CD1C00087B0200080C
:1000C0007B0200087B0200087B0200087B0200081C
:1000D0007B020008512200085D2200086922000806
:1000E0007B0200087B0200087B0200087B020008FC
:1000F0007B0200087B0200087B0200087B020008EC
:100100007B0200087B020008D91C00087B02000863
:100110007B0200087B0200087B0200087B020008CB
:100120007B0200087B0200087B0200087B020008BB
:100130007B0200087B0200087B0200087B020008AB
:100140007B0200087B0200087B0200087B0200089B
:100150007B0200087B0200087B0200087B0200088B
:100160007B0200087B0200087B0200087B0200087B
:100170007B0200087B0200087B02000800000000F0
:100180007B0200087B020008DFF810D000F0EEF8D8
:1001900000480047CD220008AFF300801046002041
:1001A0002C4B19680868B0E8F04F80F30988BFF35A
:1001B0006F8F4FF0000080F311887047000000003F
:1001C00008480068006880F308884FF0000080F35A
:1001D000148862B661B6BFF34F8FBFF36F8F00DF35
:1001E00000BF00BF08ED00E0DFF80C00016841F43B
:1001F00070010160704700BF88ED00E0EFF30980F7
:10020000BFF36F8F134B1A681EF0100F08BF20ED5D
:10021000108A20E9F04F106009B44FF0500080F3CD
:100220001188BFF34F8FBFF36F8F02F02DFD4FF09A
:10023000000080F3118809BC19680868B0E8F04F25
:100240001EF0100F08BFB0EC108A80F30988BFF3CE
:100250006F8F704724000020EFF305807047000087
:100260000648804706480047FEE7FEE7FEE7FEE750
:10027000FEE7FEE7FEE7FEE7FEE7FEE7991C000863
:10028000890100082DE9F05F0546002092469B4653
:1002900088460646814640241BE02846414647469C
:1002A000224600F053F853465A46C01A914110D3E3
:1002B00011461846224600F03AF82D1A67EB01085D
:1002C0004F4622460120002100F031F817EB0009CB
:1002D0004E41201EA4F10104DFDC484631462A4687
:1002E0004346BDE8F09F40EA01039B0703D009E0C5
:1002F00008C9121F08C0042AFAD203E011F8013B12
:1003000000F8013B521EF9D27047D2B201E000F86A
:10031000012B491EFBD270470022F6E710B51346A9
:100320000A4604461946FFF7F0FF204610BD202A72
:1003300004DB203A00FA02F1002070479140C2F13C
:10034000200320FA03F3194390407047202A04DB6E
:10035000203A21FA02F00021704721FA02F3D0403E
:10036000C2F120029140084319467047064C074DE0
:1003700006E0E06840F0010394E807009847103475
:10038000AC42F6D3FFF704FF4031000860310008AB
:10039000FEE7704772B6FEE790F83510022903D0E9
:1003A0008021416501207047052180F835100068E3
:1003B000016821F0010101600020704770B504461A
:1003C00000F0F4F80546601C02D0044800780444AC
:1003D00000F0ECF8401BA042FAD370BD14000020DE
:1003E0002DE9F84F00224FF0010803254FF00F0EC2
:1003F0000B6808FA02F42340A3426ED14E68012E26
:1004000005D0022E03D0112E01D0122E12D18668F3
:100410004FEA420C05FA0CF7BE43CF6807FA0CF717
:10042000374387604668A6430C79C4F300149440B0
:1004300034434460C668570005FA07FC8C6826EA16
:100440000C06BC403443C4604C68022C01D0122C12
:1004500013D1D40800EB8404A346D4F820905407A9
:100460004FEAD46A0EFA0AF629EA06090E6906FA74
:100470000AF646EA0906CBF8206006680C7926EAF7
:100480000C0604F00304BC40344304604C68E400F0
:1004900065D5364C266846F480462660246822F0EE
:1004A000030604F480440094314C3444A446D4F848
:1004B00008489607370F0EFA07F6B4432D4EB042A0
:1004C00001D1002624E02C4EB04201D101261FE0CC
:1004D0002A4EB04202D102261AE040E0284EB04235
:1004E00001D1032614E0274EB04201D104260FE0CB
:1004F000254EB04201D105260AE0244EB04201D17A
:10050000062605E0224EB04201D1072600E008266B
:10051000BE402643CCF808681E4E34684F689C43A2
:10052000FF0300D51C4334601A4C241D26684F6815
:100530009E43BF0300D51E432660164E083634681E
:100540004F689C43FF0200D51C433460114E0C36AB
:1005500034684F689C43BF0200D51C433460521C72
:10056000102AFFF445AFBDE8F88F00004438024080
:100570000030014000000240000402400008024038
:10058000000C02400010024000140240001802401B
:10059000001C0240003C01400069084000D00120DE
:1005A00070470AB1816170470904FBE70148806820
:1005B000704700001400002002488168027811444E
:1005C00081607047140000200B4810B5016841F4A9
:1005D00000710160016841F480610160016841F4CB
:1005E00080710160032000F073F80F2000F006F81E
:1005F00000F024F8002010BD003C024070B50D4D05
:1006000004464FF47A712878B1FBF0F00A49096882
:10061000B1FBF0F000F006FB48B9102C07D2002225
:100620002146501E00F034F800206C6070BD01209F
:1006300070BD000014000020200000200C4882B093
:10064000016841F480410160006800F4804000903E
:100650000748001F016841F08051016000680022D6
:1006600000F0805000900F21901E02B000F010B8F2
:1006700044380240002809DB00F01F0201219140AC
:100680004009800000F1E020C0F800117047000030
:10069000F0B40E4B1B680C46C3F30223C3F10705ED
:1006A000042D00D90425191D072901D2002300E0DB
:1006B000DB1E012606FA05F1491E214099409E40A5
:1006C000761E16403143F0BC01F0D5BD0CED00E0C4
:1006D000064900F0070208684FF6FF03184040EA99
:1006E0000220034A10430860704700000CED00E050
:1006F0000000FA052DE9F0470E46050065D0DFF849
:100700001481D8F80000F7B200F00F00B04207D211
:1007100088F80070D8F8000000F00F00B04254D103
:1007200028683D4C810712D5400703D5206840F466
:10073000E05020602878000703D5206840F460402E
:1007400020602068A96820F0F00008432060287825
:10075000C0072DD0304968680839012812D0022816
:1007600013D0032811D00968890700292DDA2168E0
:1007700021F0030101432160FFF718FF814641F298
:10078000883A0EE009688903EFE709688901ECE718
:10079000FFF70CFFA0EB0901514502D90320BDE88A
:1007A000F0872068696800F00C00B0EB810FEFD192
:1007B000D8F80010404601F00F01B14207D9077088
:1007C000006800F00F00B04201D00120E7E7287870
:1007D000400705D52068E96820F4E0500843206010
:1007E0002878000706D52068296920F4604040EA8F
:1007F000C100206000F038F82168084AC1F30311F5
:10080000515CC8400649086006480068FFF7F6FEDC
:100810000020C4E7003C024008380240F0300008E5
:1008200020000020180000200448054900680968DD
:10083000044AC1F38221515CC84070472000002067
:10084000083802400031000804480549006809687A
:10085000044AC1F34231515CC84070472000002077
:100860000838024000310008154810B5006810F043
:100870000C02144813D04110042A0FD0082A0ED1BC
:100880000F4C241F2268236802F03F025B0207D549
:100890002068C0F38810A0FB010106E0084610BDE7
:1008A0002168C1F38811A1FB00010023FFF7EAFCD6
:1008B0002168C1F30141491C4900B0FBF1F010BDB2
:1008C000083802400024F4002DE9F84F04006ED0EF
:1008D0002078DFF83C93C007A9F104054AD009F15C
:1008E00004000168C1F38101012908D00068C0F348
:1008F000810002280AD1D9F80000400206D52868F4
:10090000800337D560680028E1D033E06068B0F537
:10091000803F10D0B0F5A02F286810D020F4803090
:100920002860286820F4802028606068A8B1FFF75C
:100930003DFE06460DE0286840F48030F4E740F4C0
:1009400080202860F7E700BFFFF730FE801B642897
:1009500073D828688003F7D50CE0FFF727FE06461A
:1009600005E000BFFFF722FE801B6428F0D828684E
:100970008003F7D42078DFF89C8280074FF0000ACC
:100980003ED5A348001D016811F00C0F08D0006887
:10099000C0F3810002280BD1D9F80000400207D42F
:1009A0002868800716D5E068012800D112E02BE105
:1009B000E068B8B10120C8F80000FFF7F7FD06466F
:1009C00005E000BFFFF7F2FD801B0228C0D82868B1
:1009D0008007F7D52868216920F0F80040EAC100B7
:1009E00028600DE0C8F800A0FFF7E0FD064604E02F
:1009F000FFF7DCFD801B02281FD828688007F7D48A
:100A00002078000722D5824E83486169703671B123
:100A100001210160FFF7CAFD074604E0FFF7C6FDAC
:100A2000C01B022809D830688007F7D50EE0C0F84F
:100A300000A0FFF7BBFD074605E082E0FFF7B6FD2B
:100A4000C01B02287DD830688007F7D42078400783
:100A500068D5DFF8BCB100270BF13C0BDBF80000D8
:100A6000C0000BD4DBF8001041F08051CBF800102F
:100A7000DBF80000012700F080500090674E3068DE
:100A8000C00510D4306840F480703060FFF78EFDF0
:100A9000009005E0FFF78AFD0099401A022850D81F
:100AA0003068C005F6D55A4EA0686C3601280FD0C4
:100AB0000528306810D020F001003060306820F048
:100AC00004003060A068B8B1FFF770FD00900FE03F
:100AD000306840F00100F4E740F004003060F7E7D0
:100AE000FFF764FD0099411A41F28830814266D8CF
:100AF00030688007F4D50EE0FFF758FD009007E05E
:100B0000FFF754FD0099411A41F28830814256D8CE
:100B100030688007F4D42FB1DBF8001021F0805149
:100B2000CBF80010A069C8B33949091D0968C1F3A1
:100B3000810102294AD00228504607D0C8F8600037
:100B400000E03CE0FFF732FD04463BE04746C8F8D2
:100B50006000FFF72BFD064605E000BFFFF726FD0E
:100B6000801B02282BD828688001F7D4D4E907011C
:100B70000843A16A2A4A490802EB0141626A41EA34
:100B80008211084394F82C1040EA0161C9F8001062
:100B900001203866FFF70AFD044606E036E000BF94
:100BA000FFF704FD001B022809D828688001F7D54B
:100BB0002CE000BFFFF7FAFC001B022802D903203B
:100BC000BDE8F88F28688001F4D41FE00128F7D031
:100BD000D9F80000E26900F48001914214D1226A40
:100BE00000F03F0191420FD147F6C071626A0140A7
:100BF000914209D1A26A00F44031914204D1E16AE4
:100C000000F07060884201D00120D9E70020D7E7CA
:100C10000438024000004742800E47420070004006
:100C20000000FFFF10B5401EB0F1807F01D301200E
:100C300010BD4FF0E02460610F21601701F01BFB35
:100C40000020A06107202061002010BD7047704780
:100C500010B590F83C20012A22D0012280F83C20D7
:100C6000CA688C6822F4407222434C6822F4806285
:100C700022430C6822F4006222430C6922F4805261
:100C800022434C6922F400522243C969002322F412
:100C900080420A4301684A6480F83C30002010BD5D
:100CA000022010BD70B590F83C20012A32D00124FA
:100CB00080F83C40022280F83D2003685A689D6815
:100CC00022F070060A6832435A60134B02689A4257
:100CD00014D0B2F1804F11D0104B9A420ED0104B6D
:100CE0009A420BD00F4B9A4208D00F4B9A4205D034
:100CF0000E4B9A4202D00E4B9A4204D1496825F01D
:100D000080031943916080F83D40002180F83C1039
:100D1000084670BD022070BD000001400004004084
:100D200000080040000C0040000401400040014069
:100D30000018004010B5040003D094F83D0010B135
:100D400007E0012010BD002084F83C00204600F0A0
:100D50000DF8022084F83D00211D206800F0C2FF3C
:100D6000012084F83D00002010BD000008B5006897
:100D70000649884208D10648016841F01001016027
:100D8000006800F01000009008BD00000010004056
:100D9000403802402DE9F0410D46040003D094F89C
:100DA0003D0018B108E00120BDE8F081002084F882
:100DB0003C00204600F03AF8022084F83D0020680C
:100DC000816844F2070291438160211D206800F090
:100DD00089FF226890689169166A2B68AF6903439E
:100DE00040F20330814341EA0721A868EF690843D4
:100DF0004FF6FC418843E96840EA0720014328692F
:100E00002F6A000140EA0730084369686D6926F0DF
:100E1000AA0646EA05152943936022689061206876
:100E20000162012084F83D000020BDE730B587B0A5
:100E3000044614216846FFF76FFA2A482468284DB3
:100E40000022284910380223AC4221D10C6844F01A
:100E500004040C60096801F004010591016841F087
:100E6000080101600068694600F0080005904FF431
:100E700040500090CDE901321B48CDE90323FFF734
:100E8000AFFA002205211E20FFF702FC1E2022E0FF
:100E9000164DAC4221D10C6844F008040C6009687E
:100EA00001F008010591016841F00101016000684D
:100EB000694600F00100059003200090CDE9013261
:100EC0000B48CDE90323FFF78BFA002205213220DE
:100ED000FFF7DEFB3220FFF7CDFB07B030BD00008F
:100EE0000008004040380240000C0240000C004066
:100EF00000000240704700002DE9F041044690F8E0
:100F00003C000D4601283DD0012684F83C600220BB
:100F100084F83D00AAB3042A46D02068082A55D098
:100F2000D5E90027E968036A23F480530362D0F807
:100F30001CC0036A2CF4407C4CEA07274FF6FF7C68
:100F400027F470470CEA013139434FF4204723F46A
:100F5000204307EA02321A43C16102622068C16974
:100F600021F44061C1612068C169AA6841EA022197
:100F7000C0F81C1084F83D60002084F83C00BDE8F7
:100F8000F08101E00220FAE7D5E90012EB68206861
:100F900000F0DCFF2068816921F00C01816120688C
:100FA0008169AA6811430FE0D5E90012EB68206857
:100FB00001F00CF82068816921F4406181612068AA
:100FC0008169AA6841EA02218161D3E7D5E9002C51
:100FD0002F7B016A21F480710162C169036A21F0EB
:100FE000030141EA0C0121F0F00C39074FF42067AE
:100FF0004CEA116123F4206307EA02221A43C1611B
:1010000002622068C16921F00C01C1612068C169D8
:10101000AA681143ACE710B5040003D094F83D0072
:1010200010B107E0012010BD002084F83C002046EC
:1010300000F00CF8022084F83D00211D206800F02B
:1010400051FE012084F83D00002010BD70B586B02F
:10105000044614216846FFF75FF9294A25680023F2
:101060002749103A02242748B5F1804F26D0264E52
:10107000B54221D10D6845F002050D60096801F007
:1010800002010591116841F001011160116801F040
:101090000101059140210091CDE90143CDE90334DF
:1010A0006946FFF79DF9002205211D20FFF7F0FAA0
:1010B0005FF01D00FFF7DEFA06B070BD0D6845F069
:1010C00001050D60096801F001010591116841F009
:1010D00001011160116801F00101059120210091C9
:1010E000CDE901430121CDE903316946FFF778F9E4
:1010F000002205211C20FFF7CBFA1C20DAE70000B4
:1011000040380240000002400004004070B5044630
:10111000006801694FF00005C943890715D4C1680B
:10112000C943890711D4E91E016101202077206895
:1011300080698007204602D0FFF7DCFE04E000F063
:10114000C3F8204600F058F9257720680169C943A3
:10115000490717D4C168C943490713D46FF0040184
:101160000161022020772068806910F4407F2046CA
:1011700002D0FFF7BFFE04E000F0A6F8204600F022
:101180003BF9257720680169C943090716D4C1686E
:10119000C943090712D46FF00801016104202077C8
:1011A0002068C0698007204602D0FFF7A3FE04E054
:1011B00000F08AF8204600F01FF9257720680169C1
:1011C000C943C90617D4C168C943C90613D46FF00F
:1011D00010010161082020772068C06910F4407F69
:1011E000204602D0FFF786FE04E000F06DF82046AE
:1011F00000F002F9257720680169C943C90708D1C1
:10120000C168C943C90704D1891E0161204600F0A5
:1012100017F920680169C943090609D4C168C9439F
:10122000090605D46FF0800101612046FFF70EFD2D
:1012300020680169C943490609D4C168C943490600
:1012400005D46FF040010161204600F0FAF82068F3
:101250000169C94389060BD4C168C943890607D40B
:101260006FF0200101612046BDE87040FFF7EFBC40
:1012700070BD000010B586B0044614216846FFF723
:101280004BF80E492068884216D10D4800210268AB
:1012900042F010020260006800F0100005904FF468
:1012A000285000900220CDE901010120CDE9031072
:1012B00069460448FFF794F806B010BD00000140ED
:1012C0003038024000100240704770B5044690F874
:1012D0003C000D4601280DD0012684F83C60022018
:1012E00084F83D0042B1042A18D0082A2AD00C2ADA
:1012F0004DD139E0022070BD206800F065FD206806
:10130000816941F0080181612068816921F004014F
:101310008161206881692A69114311E0206800F029
:1013200083FD2068816941F40061816120688169E1
:1013300021F480618161206881692A6941EA022182
:10134000816124E0206800F0A5FD2068C16941F0BA
:101350000801C1612068C16921F00401C1612068F0
:10136000C1692A69114311E0206800F0C7FD2068B7
:10137000C16941F40061C1612068C16921F48061E3
:10138000C1612068C1692A6941EA0221C16184F80A
:101390003D60002084F83C0070BD10B5040003D00F
:1013A00094F83D0010B107E0012010BD002084F842
:1013B0003C00204600F00CF8022084F83D00211D7E
:1013C000206800F08FFC012084F83D00002010BD53
:1013D00008B500680649884208D10648016841F00E
:1013E00001010160006800F00100009008BD0000EC
:1013F00000000140443802407047000010B5044628
:101400000068012200F0D2FC0B492068884202D01B
:101410000A49884203D1416C41F40041416420688B
:10142000816801F00701062903D0016841F001013C
:101430000160002010BD00000000014000040140D8
:10144000704770477047000070B502680446106826
:10145000D168536910F00F0F52D003F0010501F469
:1014600090762E435FD0C20705D0CA0503D5E26B44
:1014700042F00102E263420705D5DA0703D0E26BCE
:1014800042F00202E263820705D5DA0703D0E26B7D
:1014900042F00402E263020707D501F020022A436A
:1014A00003D0E26B42F00802E263E26B002A33D021
:1014B000800604D5880602D5204600F0B8FD2068D5
:1014C0004069E16BC0F38010090700D428B32046BF
:1014D00000F09FFD2068416949061AD5416921F055
:1014E00040014161606BA0B11B490165606BFEF773
:1014F00053FF002810D0606B016DBDE870400847B5
:10150000830610D58B060ED52046BDE8704000F04E
:101510008EBD2046FFF796FF70BD2046FFF792FF75
:101520000020E06370BD030606D50B0604D52046F7
:10153000BDE8704000F05ABE4006F3D54806F1D52C
:10154000D168204621F04001D160202184F8391073
:1015500000F0C5F870BD00000320000870B504005D
:1015600004D094F83900002510B106E0012070BDC8
:1015700084F83850204600F023F8242084F83900FD
:101580002068C16821F40051C160204600F09AFD36
:101590002068016921F4904101612068416921F0CE
:1015A0002A0141612068C16841F40051C160E563CE
:1015B000202084F8390084F83A00002070BD000033
:1015C000F0B587B0044614216846FEF7A5FE3D4BF2
:1015D000276800223C490224032507263B489F42F6
:1015E00021D1394B14331F6847F010071F601B6867
:1015F00003F0100305930B6843F001030B600968C7
:1016000002AB01F0010105916902CDE9001483E804
:1016100064006946FEF7E4FE002205212520FFF75D
:1016200037F8252024E0284BDFF8A4C010336745A5
:1016300022D11F6847F400371F601B6803F4003392
:1016400005930B6843F001030B60096802AF01F0DA
:10165000010105910C21CDE9001487E86400694679
:10166000FEF7BEFE002205212620FFF711F82620F6
:10167000FFF700F807B0F0BD16488742FAD11868A6
:1016800040F480201860186800F4802005900868F5
:1016900040F002000860086802AF00F00200059008
:1016A0004FF44060CDE9000487E8640069460A48C9
:1016B000FEF796FE002205212720FEF7E9FF2720EE
:1016C000D6E7000000100140303802400000024020
:1016D000004400400048004000040240704770474A
:1016E000FEE7000010B5A4B01C221C496846FEF7B6
:1016F000FAFD0021684600F023FF194C17491C220F
:1017000020601C3107A8FEF7EEFD002107A800F0BD
:1017100017FF124960601C2238310EA8FEF7E3FD66
:1017200000210EA800F00CFF0C49A0601C225431CF
:1017300015A8FEF7D8FD002115A800F001FF074904
:10174000E0601C2270311CA8FEF7CDFD00211CA812
:1017500000F0F6FE206124B010BD000064300008E7
:10176000000000202DE9F04186B014216846FEF704
:10177000D3FD40480024016841F010010160016878
:1017800001F010010591016841F0800101600168DC
:1017900001F080010591016841F0040101600168D8
:1017A00001F004010591016841F001010160016847
:1017B00001F001010591016841F002010160016839
:1017C00001F002010591016841F008010160006823
:1017D000294E00F00800059000220F213046FEF748
:1017E000E0FEDFF8988000223F214046FEF7D9FE58
:1017F0002720CDE90004224F694638460294FEF7BF
:10180000EFFD4FF4C050CDE9000469463046029424
:10181000FEF7E6FD182001258DE8310069463846BF
:10182000FEF7DEFD0F200090CDE9015469463046F9
:101830000394FEF7D5FD4FF47040CDE900046946EE
:1018400010480294FEF7CCFD4FF47060CDE900041F
:10185000694640460294FEF7C3FD3F200090CDE963
:101860000154694640460394FEF7BAFD06B0BDE850
:10187000F08100003038024000080240000C0240B5
:10188000001002400004024010B592B000240F94F2
:101890001C2168461094FEF73FFD202107A8FEF7A3
:1018A0003BFD284826490160A721C0E9011444F600
:1018B0002061C0E9031444618461FFF76EFD08B143
:1018C000FEF768FD0F940FA91E481094FFF7EAF980
:1018D00008B1FEF75FFD6020CDE900040294039497
:1018E000049405940022694616480694FFF7EDFC1F
:1018F00008B1FEF74FFD042269461248FFF7E5FCE8
:1019000008B1FEF747FD082269460E48FFF7DDFCE7
:1019100008B1FEF73FFD0794089409944FF4005076
:101920000A94CDE90B4007A906480E94FFF790F9F9
:1019300008B1FEF72FFD0348FFF79CFC12B010BD65
:1019400000000140DC02002010B586B000241848D9
:10195000059404940094019402944FF08041039400
:1019600001604721C0E901144FF6FF71C0E903147B
:101970008461FFF750FB08B1FEF70CFD049404A945
:101980000B480594FFF78EF908B1FEF703FD01201F
:10199000CDE9004002940022694605480394FFF710
:1019A000ABFA002801D0FEF7F5FC06B010BD000030
:1019B0001C03002010B586B0002419480594049437
:1019C00000940194029415490394016041F61F416B
:1019D000C0E901144FF6FF71C0E903148461FFF7F9
:1019E0001AFB08B1FEF7D6FC049404A90C48059430
:1019F000FFF758F908B1FEF7CDFC0120CDE9004012
:101A000002940022694606480394FFF775FA0028FD
:101A100001D0FEF7BFFC06B010BD0000000400407E
:101A20005C03002010B58CB024216846FEF774FCDE
:101A300000241648099414490A9401604721C0E91A
:101A400001144FF6FF71C0E9031484610120CDE950
:101A50000004CDE902040494CDE9054007946946E9
:101A60000A480894FFF796F908B1FEF793FC099429
:101A700009A906480A94FFF715F9002801D0FEF7D6
:101A800089FC0CB010BD0000000800409C03002041
:101A900010B58CB024216846FEF73EFC00241648A1
:101AA000099414490A9401604721C0E901144FF6D2
:101AB000FF71C0E9031484610120CDE90004CDE980
:101AC00002040494CDE90540079469460A48089445
:101AD000FFF760F908B1FEF75DFC099409A9064813
:101AE0000A94FFF7DFF8002801D0FEF753FC0CB092
:101AF00010BD0000000C0040DC0300201CB50024D9
:101B00000E4800940C49019401604721C0E901147A
:101B10004FF6FF718461C160FFF70CF908B1FEF761
:101B200039FC0094694605480194FFF7BBF800288A
:101B300001D0FEF72FFC1CBD001000401C0400204B
:101B40000C4810B50A4901604FF4E13141600021B1
:101B500081600C22C160C0E904128161C161FFF79C
:101B6000FDFC002803D0BDE81040FEF713BC10BDFB
:101B7000001001405C0400200C4810B50A490160C7
:101B80004FF4E1314160002181600C22C160C0E965
:101B900004128161C161FFF7E1FC002803D0BDE8B8
:101BA0001040FEF7F7BB10BD004400409C0400202D
:101BB0000C4810B50A4901604FF4E1314160002141
:101BC00081600C22C160C0E904128161C161FFF72C
:101BD000C5FC002803D0BDE81040FEF7DBBB10BDFC
:101BE00000480040DC040020FEE7FEE710B5FEF7E9
:101BF000E3FC01F063F9012803D0BDE8104001F0D7
:101C0000EFB810BD30B593B030216846FEF784FBC5
:101C100014210CA8FEF780FB1D480025016841F047
:101C200080510160006800F08050119019480168EF
:101C300041F4804101600068022400F4804011906A
:101C400001200090000401908001CDE9064008AA1F
:101C50000420A82182E813000B906846FEF734FEAA
:101C600008B172B6FEE70CA90F2081E831004FF4ED
:101C7000A0500F904FF48050109005210CA8FEF753
:101C800039FD002801D072B6FEE713B030BD000068
:101C900040380240007000400548016841F470017E
:101CA000016003494FF00060803908607047000010
:101CB00088ED00E00148FFF729BA00001C0300206E
:101CC0000148FFF723BA00005C0300200148FFF73A
:101CD0001DBA00009C0300200148FFF717BA00005E
:101CE000DC030020F0B50268254C264D264E274F18
:101CF000274B4FF0804CA04209D0604507D0A84246
:101D000005D0B04203D0B84201D0984204D122F0AD
:101D1000700E4A6842EA0E02A0421BD0604519D0FC
:101D2000A84217D0B04215D0B84213D0984211D073
:101D3000184DA8420ED0184DA8420BD0174DA842FE
:101D400008D0174DA84205D0164DA84202D0164D16
:101D5000A84203D122F44075CA682A434D6922F093
:101D600080022A4302608A68C2620A688262A042D4
:101D700001D0984201D10969016301214161F0BD9F
:101D8000000001400004004000080040000C00403A
:101D9000000401400040014000440140004801406F
:101DA00000180040001C00400020004010B501F069
:101DB0001F030121046A99408C430462016A9A401E
:101DC0001143016210BD0000F0B5026A22F0010269
:101DD0000262036A42688469124E24F073050C683B
:101DE0002C4323F002058B682B430D4DA84201D0F4
:101DF000B04205D123F00807CB683B4323F004032E
:101E0000A84201D0B04205D14D6922F44072154379
:101E10008A692A4342608461496841630362F0BD74
:101E20000000014000040140F0B5026A22F01002F7
:101E30000262026A436884690D6824F4E64444EA55
:101E400005248D6822F0200242EA05120F4D104E43
:101E5000A84201D0B04206D1CF6822F0800242EA07
:101E6000071222F04002A84201D0B04207D14D69CA
:101E700023F4406343EA85038D6943EA85034360A5
:101E80008461496881630262F0BD00000000014086
:101E900000040140F0B5026A22F480720262026A14
:101EA0004368C46922F4007224F073050C68124E72
:101EB0002C438D6842EA05220E4DA84201D0B04263
:101EC00006D1CF6822F4006242EA072222F480623F
:101ED000A84201D0B04207D14D6923F4405343EAF0
:101EE00005138D6943EA05134360C4614968C16302
:101EF0000262F0BD000001400004014030B5026AFA
:101F000022F480520262046A4268C3690D6823F4B5
:101F1000E64343EA05238D6824F4005444EA05347B
:101F2000084DA84202D0084DA84204D14D6922F4C0
:101F3000804242EA85124260C361496801640462DA
:101F400030BD0000000001400004014070B5046A8B
:101F500024F0010404628469056A154EB04214D06D
:101F6000B0F1804F11D0134EB0420ED0124EB0429D
:101F70000BD0124EB04208D0114EB04205D0114ED7
:101F8000B04202D0104EB04203D124F003041443F7
:101F900001E044F001041A0724F0F00444EA12625C
:101FA00025F00A0301F00A0119438261016270BD44
:101FB000000001400004004000080040000C004008
:101FC00000040140004001400018004030B5046AA0
:101FD00024F0100404628469056A24F4407444EA1D
:101FE000022222F470444FF6FF7202EA03322243C7
:101FF000A02425F0A00304EA0111194382610162C3
:1020000030BD10B5806B0021C185C184FFF71AFA7D
:1020100010BD0168CA6822F49072CA6001684A69FA
:1020200022F001024A61202180F83A10704710B571
:1020300090F83A10222901D0022010BD8168B1F534
:10204000805F11D00169002901681FD0496801F043
:102050007F03816A4A1C82620B70C18D491E09048C
:10206000090CC18518D02BE00269816A002A026838
:10207000526805D0D2B20A80816A491C8162ECE7BD
:10208000C2F308020A80816A891CF7E74A68816AFC
:102090004B1C83620A70E0E70168CA6822F02002E4
:1020A000CA600168CA6822F48072CA6001684A691D
:1020B00022F001024A61202180F83A10FFF70EFB5E
:1020C000002010BD2DE9F041044600680169E26876
:1020D00021F44051114301612169A068E26908437C
:1020E0006169114308432168CA6849F20C639A4345
:1020F0000243CA6020684169A26921F4407111431A
:102100004161E069192764253226B0F5004F354A50
:10211000354920684FF0000806D0884201D090422F
:1021200036D1FEF791FB35E0884201D0904202D1D2
:10213000FEF78AFB01E0FEF777FB61684A18A0FB17
:10214000070148EB0803FEF79DF80146B0FBF5F0E8
:102150000201B1FBF5F06FF01803584301EB80006A
:1021600006EBC000B0FBF5F000F0F80002EB400217
:10217000B1FBF5F0584301EB800006EBC000B0FB6B
:10218000F5F000F00700216810448860BDE8F08198
:10219000FEF74AFB61688B0F8A00A0FB0701FEF780
:1021A00071F80146B0FBF5F06FF01802504301EBF7
:1021B000800006EB0010B0FBF5F000F0F002B1FB80
:1021C000F5F002EB0012B1FBF5F06FF01803584385
:1021D00001EB800006EB0010B0FBF5F000F00F0003
:1021E000D1E70000001401400010014090F83910C0
:1021F000212901D0022070478168B1F5805F016A12
:102200000BD04A1C0262026809785160C18C491ED9
:102210000904090CC1840ED017E009880268C1F3D3
:102220000801516001690029016A02D0491C01625C
:10223000ECE7891CFBE70168CA6822F08002CA60EB
:102240000068C16841F04001C16000207047000093
:102250000148FFF7F9B800005C0400200148FFF7CF
:10226000F3B800009C0400200148FFF7EDB800001F
:10227000DC040020FEE70907090E002804DB00F15A
:10228000E02080F80014704700F00F0000F1E0201B
:1022900080F8141D704702E008C8121F08C1002A08
:1022A000FAD170477047002001E001C1121F002AD7
:1022B000FBD17047012000F037F9FBE7012000F067
:1022C00033F9FBE7012000F02FF9FBE7FEF77CF97B
:1022D000FFF798FCFFF746FAFFF7D6FAFFF734FB53
:1022E000FFF768FBFFF79EFBFFF7D2FBFFF728FC29
:1022F000FFF742FCFFF75CFCFFF700FC00F0F0F892
:102300009FED070A00F080FB064C10212046FEF7E7
:1023100043F90128F9D0FFF7E5F900F00CF9FEE7E1
:102320000000000000100240154D164C00264FF42E
:102330007A77012000F0E6F800F02CF818E0002091
:1023400000F0E0F804212846FEF726F920B120210C
:102350002846FEF721F900B9267008212846FEF725
:102360001BF928B9012000F0CDF83846FEF726F811
:1023700020780028E3D1012000F0D6F8D9E700004A
:10238000001002408500002001460020842900D072
:10239000C81C704710B54A4C04212DED028B204615
:1023A000FEF7FAF89FED478A70B901212046FEF743
:1023B000F3F848B902212046FEF7EEF820B92021B3
:1023C0002046FEF7E9F828B104212046FEF7E4F89C
:1023D00018B112E0B0EE480A6CE001212046FEF789
:1023E000DBF8012809D102212046FEF7D5F820B9F3
:1023F00020212046FEF7D0F830B104212046FEF718
:10240000CBF8012803D00CE09FED2F0A52E0022107
:102410002046FEF7C1F820B920212046FEF7BCF87F
:1024200028B104212046FEF7B7F818B112E09FED5D
:10243000270A3FE001212046FEF7AEF850B90221FD
:102440002046FEF7A9F8012804D120212046FEF7F6
:10245000A3F828B104212046FEF79EF818B10DE03C
:102460009FED1B0A26E001212046FEF795F828B9CA
:1024700020212046FEF790F8012819D0042120469B
:10248000FEF78AF8012810D120212046FEF784F8B3
:1024900001280AD1B0EE480A00F0B6FA0D490878D2
:1024A000401C08700C4901200870BDEC028B10BD67
:1024B0009FED0A0ABDEC028BBDE8104000F0A4BA03
:1024C0000010024000000000000070C20000B4C212
:1024D0000000704284000020850000200000B4420B
:1024E00010B500210648FEF789FF04210448FEF7D5
:1024F00085FFBDE8104008210148FEF77FBF0000BE
:10250000DC020020074901280A6807D010B140F614
:10251000B833584350630968886370474FF47A6052
:10252000F8E70000DC02002010B500B9012000F03F
:1025300047FB002010BD10B500F068FB002010BD67
:102540007FB50D4604464169B0F9080081B1A16923
:1025500071B1FFF719FFD4E905128DE80700D4E93E
:1025600000102B46226900F07EFC039004B070BD81
:10257000FFF70AFF03A9CDE90001208A2B4682B2AA
:10258000D4E9001000F042FC012801D00020EDE762
:102590000398EBE72DE9F0411A4C0F4605466669B2
:1025A0002168002081F852002068001D00F044FAE4
:1025B00038B9206890F82C1001208840A169814327
:1025C000A161681C07D137B12168BDE8F0410E4810
:1025D000091D00F075BA20683544B5424560216890
:1025E00005D2A068BDE8F041091D00F051BA60684D
:1025F000091D00F04DFA206B854200D22563BDE82D
:10260000F081000024000020F80500202DE9F041B1
:10261000054600F061FA2E4C2069401C20612068BC
:102620002C4F10B1E06940B32DE0256020690128EE
:1026300029D1002606EB860007EB800000F01AFA8D
:10264000761C072EF6D323488C3000F013FA21486D
:10265000A03000F00FFA1F48B43000F00BFA1D480C
:10266000C83000F007FA1B48DC3000F003FA1948C4
:102670008C3060601430A06005E02068E96AC06AB0
:10268000884200D82560E06A401CE062E96A0120C7
:10269000A26988401043A06101EB810007EB800034
:1026A000291D00F00DFA00F037FAE06900280CD07F
:1026B0002068E96AC06A884207D207494FF0805013
:1026C0000860BFF34F8FBFF36F8FBDE8F08100004C
:1026D000240000201C05002004ED00E010B5044695
:1026E00090F8510058B101280CD002280FD050208A
:1026F00080F31188BFF34F8FBFF36F8FFEE7206B1E
:1027000000F01EFA2046BDE8104000F019BA10BDD6
:1027100010484FF47051420706D0C01D0D4920F0FB
:102720000700411AC1F570510B4A00230144C2E968
:1027300000030839103A21F0070111604B600B606B
:102740000B1AC0E9001393604FF000405360D06053
:10275000704700000C06002070000020144E154C3D
:10276000A6F1C8074FF08058DFF84C9012E000BF88
:1027700000F0B2F9F068C568281D00F05DF9206925
:10278000401E2061E068401EE06000F0C5F9284668
:10279000FFF7A4FFE0680028EAD138680128F9D9DA
:1027A000C9F80080BFF34F8FBFF36F8FF2E70000CF
:1027B000E40500202400002004ED00E02DE9F05F96
:1027C0008846DDE90B941546834691009A460A9E99
:1027D000A522206BFDF799FD6FF00301206B01EB43
:1027E0008501084420F00707780707D0502080F3C0
:1027F0001188BFF34F8FBFF36F8FFEE70025B8F14D
:10280000000F0FD05FF00000221818F8001082F8B7
:10281000341018F8001011B1401C1028F4D384F8BB
:10282000435001E084F83450072E00D30626E662B8
:10283000C4E91165201D00F028F904F1180000F02A
:1028400024F92461C6F107006462A061E56484F89C
:10285000505084F8525052465946384600F0BEF85F
:102860002060B9F1000F01D0C9F80040BDE8F09F29
:1028700030B5114900E011460A688242FBD34B682B
:102880005C18844203D14068184448600846436895
:102890001C18944209D1084C103C2468A24209D06B
:1028A00052681A4442600A6812680260814200D08D
:1028B000086030BD0460F9E77000002006484168F8
:1028C000096829B14168C968C968496801637047E6
:1028D0004FF0FF31FAE7000024000020084840686C
:1028E000401C4FF0500080F3118804D0BFF34F8F8D
:1028F000BFF36F8FFEE7BFF34F8FBFF36F8FFEE71E
:10290000780000202DE9F0410546002700F0B4F9D9
:10291000314E306808B9FFF7FBFEF06805424BD135
:10292000C5B3083568070ED005F00700C0F10800F0
:102930000544680707D0502080F31188BFF34F8FFC
:10294000BFF36F8FFEE72DB37068854234D82248FD
:10295000103001460C6801E020460C466168A9422F
:1029600002D221680029F7D131688C4224D007684F
:102970002168016060680837411B10290FD9601970
:10298000420708D0502080F31188BFF34F8FBFF368
:102990006F8FFEE710E041606560FFF769FF6168D7
:1029A0007068401A7060B268904200D2B060F068FF
:1029B00001430020C4E9000100F0F2FA780707D0D3
:1029C000502080F31188BFF34F8FBFF36F8FFEE766
:1029D0003846BDE8F08100006000002010B5031FFC
:1029E0004FF080741C601B1F21F001011960191F3A
:1029F000044B0B6014390A60091F6FF0020244385F
:102A00000A6010BDDD280008DFED080A094920EE44
:102A1000200ADFED070A096880EE201ABDEEC10A20
:102A200010EE100A00F2DC50C86370470000FA4351
:102A300000003442DC020020D0E9013201699A60D2
:102A4000D0E901235A604A68824201D182684A6013
:102A5000002202610868401E086008687047000094
:102A6000034B036003F1540008608020106070473E
:102A70008800002000F108014FF0FF32C0E9011288
:102A8000C160016100210160704700210161704750
:102A900030B50B685A1C02D000F1080202E002694E
:102AA00004E02246546825689D42FAD953684B6079
:102AB00099608A60516008610168491C016030BDFD
:102AC00042684A6093688B609368596091600861BE
:102AD0000168491C01607047502080F31188BFF3E2
:102AE0004F8FBFF36F8F0A494868401C4860012828
:102AF0000CD10848006810F0FF0F07D0502080F379
:102B00001188BFF34F8FBFF36F8FFEE77047000050
:102B10007800002004ED00E00849486828B1401E14
:102B2000486001D180F311887047502080F31188EC
:102B3000BFF34F8FBFF36F8FFEE7000078000020D8
:102B400070B5002827D0144DA0F108046168E8682A
:102B5000014207D1502080F31188BFF34F8FBFF39C
:102B60006F8FFEE722683AB1502080F31188BFF3DF
:102B70004F8FBFF36F8FFEE78143616000F07CF8F9
:102B800060686968084468602046FFF771FEBDE828
:102B9000704000F005BA70BD600000204FF0E020EA
:102BA00000210161816105494FF47A720968B1FB26
:102BB000F2F1491E416107210161704720000020A8
:102BC00010B5020014D00F48806B38B1502080F34C
:102BD0001188BFF34F8FBFF36F8FFEE700F04CF803
:102BE00000211046FFF7D6FC00F0DAF9002807D1E3
:102BF00005494FF080500860BFF34F8FBFF36F8FD0
:102C000010BD00002400002004ED00E010B586B0E7
:102C10000024039405AA04A903A80494FFF720FF45
:102C2000DDE903010094CDE9011000230EA1104855
:102C3000059A00F018F90F490028486311D0502078
:102C400080F31188BFF34F8FBFF36F8F4FF0FF30CA
:102C500008630120C8614C6106B0BDE8104000F077
:102C600045B806B010BD000049444C4500000000C6
:102C70005D270008240000200248816B491C816305
:102C800070470000240000201448816B11B101211D
:102C900041627047002141628169B1FA81F1C1F15D
:102CA0001F0101EB81020E4951F822306BB101EB9B
:102CB000820101F108034A6852684A609A4201D1D0
:102CC00052684A60D16801607047502080F31188D3
:102CD000BFF34F8FBFF36F8FFEE70000240000208B
:102CE0001C0500200120FFF71FFCFBE71CB537483F
:102CF0000168374A914207D1502080F31188BFF311
:102D00004F8FBFF36F8FFEE700683149491E88423D
:102D100007D1502080F31188BFF34F8FBFF36F8F1F
:102D2000FEE72C4908780190FF20087008788DF89C
:102D300000009DF800009DF8002000F0F000904297
:102D400007D0502080F31188BFF34F8FBFF36F8FF0
:102D5000FEE79DF80000204B00F05000187007209F
:102D6000986005E09DF8002052008DF80020401E7C
:102D70009DF800201206F5D49860032807D0502053
:102D800080F31188BFF34F8FBFF36F8FFEE74FF4CF
:102D900040709860019808700C482030016841F438
:102DA00070010160016841F070410160FFF7F6FEBB
:102DB00000205860FDF718FA0848016841F04041CA
:102DC0000160FDF7FDF900201CBD000000ED00E0F2
:102DD00071C20F4100E400E07800002034EF00E011
:102DE00010B5502080F31188BFF34F8FBFF36F8F62
:102DF00000F072F818B104494FF0805008600020CC
:102E000080F3118810BD000004ED00E02DE9FF5FA4
:102E10008346DDE90E87994616468A469000FFF7FD
:102E200071FD05001CD05420FFF76CFD040014D088
:102E30000020256384F85100CDE90240CDE90087E8
:102E40004B46324651465846FFF7B8FC2046FFF73E
:102E5000DDFB012004B0BDE8F09F2846FFF770FEBF
:102E60004FF0FF30F6E7F0B585B0DDE90B640A9D61
:102E7000A6B1DCB1542700972663022684F851607E
:102E8000002604AFCDE90246CDE90057FFF796FCD6
:102E90002046FFF7BBFB049805B0F0BD502080F33F
:102EA0001188BFF34F8FBFF36F8FFEE7502080F381
:102EB0001188BFF34F8FBFF36F8FFEE70548C169DD
:102EC00019B1806B18B100207047012070470220B3
:102ED00070470000240000202DE9F0412E4C00270F
:102EE000A06B40B1206A401C2062606A00B10127DB
:102EF0003846BDE8F0816669761C666113D160686A
:102F0000006838B1502080F31188BFF34F8FBFF3B2
:102F10006F8FFEE76068A1686160A060A06A401CD6
:102F2000A062FFF7CBFC206BDFF87080864209D3EC
:102F30006068006880B16068C068C568686886427B
:102F40000DD220632068C06A00EB800158F8210090
:102F50000128CAD90127C8E74FF0FF30F1E7281D43
:102F6000FFF76AFDA86A18B105F11800FFF764FDC4
:102F7000E86A0121A26981401143A16100EB80014F
:102F800008EB8100291DFFF79BFDE86A2168C96AEB
:102F90008842CDD30127CBE7240000201C05002068
:102FA0002DE9F0472C4D00242746A86B38B1FFF7D8
:102FB00093FDA86B401EA863A86B40B146E050206B
:102FC00080F31188BFF34F8FBFF36F8FFEE729693E
:102FD000224E0120D1B3A6F1B40980463068E8B191
:102FE000F068C46804F11800FFF726FD201DFFF704
:102FF00023FDE06AAA6908FA00F11143A96100EB18
:10300000800109EB8100211DFFF75AFDE06A296864
:10301000C96A8842E2D3C5F82480DFE70CB1FFF724
:103020004DFC2C6A44B14646FFF756FF00B16E6274
:10303000641EF9D100202862686A38B10849012766
:1030400038070860BFF34F8FBFF36F8FFFF764FD42
:103050003846BDE8F087000024000020D00500209D
:1030600004ED00E0143100082923000802000000EC
:1030700000000000800000000000000000000000D0
:1030800038310008B52200080100000000000000EF
:10309000800000000000000000000000083100086F
:1030A000C5220008000000000000000080000000B1
:1030B00000000000000000002C310008E52C000892
:1030C0000000000000000000800000000000000080
:1030D0000000000024310008BD22000801000000AB
:1030E0000000000080000000000000000000000060
:1030F00000000000000000000102030406070809A8
:103100000000000001020304696F5F6A756467656F
:10311000000000006D61696E5F636F6E74726F6CAA
:1031200000000000656E636F64657200776176650C
:103130005F6465746563740064657465637400003E
:10314000603100080000002088000000962200087E
:10315000E83100088800002088450000A622000809
:10316000000000000000000000000000000000005F
:10317000000000000100000010000000000000003E
:103180000024F40000000000000000000000000027
:10319000000000000000000000000000000000002F
:1031A000000000000000000000000000000000001F
:1031B000000000000000000000000000000000000F
:1031C00000000000000000000000000000000000FF
:1031D000000000000000000000000000AAAAAAAA47
:0831E0000000000000000000E7
:040000050800018965
:00000001FF
